{
  "contractName": "Hello",
  "abi": [
    {
      "constant": true,
      "inputs": [],
      "name": "hello",
      "outputs": [
        {
          "internalType": "string",
          "name": "",
          "type": "string"
        }
      ],
      "payable": false,
      "stateMutability": "view",
      "type": "function"
    },
    {
      "constant": true,
      "inputs": [],
      "name": "get",
      "outputs": [
        {
          "internalType": "string",
          "name": "",
          "type": "string"
        }
      ],
      "payable": false,
      "stateMutability": "view",
      "type": "function"
    },
    {
      "constant": false,
      "inputs": [
        {
          "internalType": "string",
          "name": "_hello",
          "type": "string"
        }
      ],
      "name": "set",
      "outputs": [],
      "payable": false,
      "stateMutability": "nonpayable",
      "type": "function"
    }
  ],
  "bytecode": "0x60c0604052600c60808190526b68656c6c6f20776f726c642160a01b60a090815261002d9160009190610040565b5034801561003a57600080fd5b506100db565b828054600181600116156101000203166002900490600052602060002090601f016020900481019282601f1061008157805160ff19168380011785556100ae565b828001600101855582156100ae579182015b828111156100ae578251825591602001919060010190610093565b506100ba9291506100be565b5090565b6100d891905b808211156100ba57600081556001016100c4565b90565b61037c806100ea6000396000f3fe608060405234801561001057600080fd5b50600436106100415760003560e01c806319ff1d21146100465780634ed3885e146100c35780636d4ce63c1461016b575b600080fd5b61004e610173565b6040805160208082528351818301528351919283929083019185019080838360005b83811015610088578181015183820152602001610070565b50505050905090810190601f1680156100b55780820380516001836020036101000a031916815260200191505b509250505060405180910390f35b610169600480360360208110156100d957600080fd5b8101906020810181356401000000008111156100f457600080fd5b82018360208201111561010657600080fd5b8035906020019184600183028401116401000000008311171561012857600080fd5b91908080601f016020809104026020016040519081016040528093929190818152602001838380828437600092019190915250929550610201945050505050565b005b61004e610218565b6000805460408051602060026001851615610100026000190190941693909304601f810184900484028201840190925281815292918301828280156101f95780601f106101ce576101008083540402835291602001916101f9565b820191906000526020600020905b8154815290600101906020018083116101dc57829003601f168201915b505050505081565b80516102149060009060208401906102af565b5050565b60008054604080516020601f60026000196101006001881615020190951694909404938401819004810282018101909252828152606093909290918301828280156102a45780601f10610279576101008083540402835291602001916102a4565b820191906000526020600020905b81548152906001019060200180831161028757829003601f168201915b505050505090505b90565b828054600181600116156101000203166002900490600052602060002090601f016020900481019282601f106102f057805160ff191683800117855561031d565b8280016001018555821561031d579182015b8281111561031d578251825591602001919060010190610302565b5061032992915061032d565b5090565b6102ac91905b80821115610329576000815560010161033356fea265627a7a72315820131ae857e27e12856232b4a23b2878ca28e8fbe08c7d0c93f4931c1baae427a664736f6c63430005100032",
  "source": "pragma solidity ^0.5.0;\n\ncontract Hello{\nstring public hello =\"hello world!\";    \nfunction get() public view returns(string memory){\nreturn hello;\n}\nfunction set(string memory _hello) public{\nhello = _hello;\n}\n}\n",
  "sourcePath": "/home/yehia/Documents/Projects/solidity/HelloWorldBox/contracts/Hello.sol",
  "compiler": {
    "name": "solc",
    "version": "0.5.16+commit.9c3226ce.Emscripten.clang"
  },
  "schemaVersion": "3.4.0",
  "updatedAt": "2021-05-08T09:05:35.047Z",
  "networkType": "ethereum",
  "devdoc": {
    "methods": {}
  },
  "userdoc": {
    "methods": {}
  }
}