{
  "contractName": "Simple",
  "abi": [
    {
      "constant": true,
      "inputs": [],
      "name": "hello",
      "outputs": [
        {
          "name": "",
          "type": "string"
        }
      ],
      "payable": false,
      "stateMutability": "view",
      "type": "function",
      "signature": "0x19ff1d21"
    },
    {
      "constant": true,
      "inputs": [],
      "name": "get",
      "outputs": [
        {
          "name": "",
          "type": "string"
        }
      ],
      "payable": false,
      "stateMutability": "view",
      "type": "function",
      "signature": "0x6d4ce63c"
    },
    {
      "constant": false,
      "inputs": [
        {
          "name": "_hello",
          "type": "string"
        }
      ],
      "name": "set",
      "outputs": [],
      "payable": false,
      "stateMutability": "nonpayable",
      "type": "function",
      "signature": "0x4ed3885e"
    }
  ],
  "bytecode": "0x60c0604052600c60808190527f68656c6c6f20776f726c6421000000000000000000000000000000000000000060a090815261003e9160009190610051565b5034801561004b57600080fd5b506100ec565b828054600181600116156101000203166002900490600052602060002090601f016020900481019282601f1061009257805160ff19168380011785556100bf565b828001600101855582156100bf579182015b828111156100bf5782518255916020019190600101906100a4565b506100cb9291506100cf565b5090565b6100e991905b808211156100cb57600081556001016100d5565b90565b6103af806100fb6000396000f3fe6080604052600436106100565763ffffffff7c010000000000000000000000000000000000000000000000000000000060003504166319ff1d21811461005b5780634ed3885e146100e55780636d4ce63c1461019a575b600080fd5b34801561006757600080fd5b506100706101af565b6040805160208082528351818301528351919283929083019185019080838360005b838110156100aa578181015183820152602001610092565b50505050905090810190601f1680156100d75780820380516001836020036101000a031916815260200191505b509250505060405180910390f35b3480156100f157600080fd5b506101986004803603602081101561010857600080fd5b81019060208101813564010000000081111561012357600080fd5b82018360208201111561013557600080fd5b8035906020019184600183028401116401000000008311171561015757600080fd5b91908080601f01602080910402602001604051908101604052809392919081815260200183838082843760009201919091525092955061023d945050505050565b005b3480156101a657600080fd5b50610070610254565b6000805460408051602060026001851615610100026000190190941693909304601f810184900484028201840190925281815292918301828280156102355780601f1061020a57610100808354040283529160200191610235565b820191906000526020600020905b81548152906001019060200180831161021857829003601f168201915b505050505081565b80516102509060009060208401906102eb565b5050565b60008054604080516020601f60026000196101006001881615020190951694909404938401819004810282018101909252828152606093909290918301828280156102e05780601f106102b5576101008083540402835291602001916102e0565b820191906000526020600020905b8154815290600101906020018083116102c357829003601f168201915b505050505090505b90565b828054600181600116156101000203166002900490600052602060002090601f016020900481019282601f1061032c57805160ff1916838001178555610359565b82800160010185558215610359579182015b8281111561035957825182559160200191906001019061033e565b50610365929150610369565b5090565b6102e891905b80821115610365576000815560010161036f56fea165627a7a72305820fde662c6eaf6c0d6b8acebf513dc5e9fc1949823c349a3f04db7e5fdf56d2c260029",
  "source": "pragma solidity ^0.5.0;\n\ncontract Simple{\nstring public hello =\"hello world!\";    \nfunction get() public view returns(string memory){\nreturn hello;\n}\nfunction set(string memory _hello) public{\nhello = _hello;\n}\n}\n",
  "sourcePath": "/home/yehia/Documents/Projects/solidity/My Box/contracts/Simple.sol",
  "compiler": {
    "name": "solc",
    "version": "0.5.0+commit.1d4f565a.Emscripten.clang"
  },
  "schemaVersion": "3.0.8",
  "updatedAt": "2019-07-08T19:41:41.946Z",
  "devdoc": {
    "methods": {}
  },
  "userdoc": {
    "methods": {}
  }
}